{
  "_format": "hh-sol-artifact-1",
  "contractName": "NFTCollectible",
  "sourceName": "contracts/NFTCollectible.sol",
  "abi": [
    {
      "inputs": [
        {
          "internalType": "string",
          "name": "baseURI",
          "type": "string"
        }
      ],
      "stateMutability": "nonpayable",
      "type": "constructor"
    },
    {
      "anonymous": false,
      "inputs": [
        {
          "indexed": true,
          "internalType": "address",
          "name": "owner",
          "type": "address"
        },
        {
          "indexed": true,
          "internalType": "address",
          "name": "approved",
          "type": "address"
        },
        {
          "indexed": true,
          "internalType": "uint256",
          "name": "tokenId",
          "type": "uint256"
        }
      ],
      "name": "Approval",
      "type": "event"
    },
    {
      "anonymous": false,
      "inputs": [
        {
          "indexed": true,
          "internalType": "address",
          "name": "owner",
          "type": "address"
        },
        {
          "indexed": true,
          "internalType": "address",
          "name": "operator",
          "type": "address"
        },
        {
          "indexed": false,
          "internalType": "bool",
          "name": "approved",
          "type": "bool"
        }
      ],
      "name": "ApprovalForAll",
      "type": "event"
    },
    {
      "anonymous": false,
      "inputs": [
        {
          "indexed": true,
          "internalType": "address",
          "name": "previousOwner",
          "type": "address"
        },
        {
          "indexed": true,
          "internalType": "address",
          "name": "newOwner",
          "type": "address"
        }
      ],
      "name": "OwnershipTransferred",
      "type": "event"
    },
    {
      "anonymous": false,
      "inputs": [
        {
          "indexed": true,
          "internalType": "address",
          "name": "from",
          "type": "address"
        },
        {
          "indexed": true,
          "internalType": "address",
          "name": "to",
          "type": "address"
        },
        {
          "indexed": true,
          "internalType": "uint256",
          "name": "tokenId",
          "type": "uint256"
        }
      ],
      "name": "Transfer",
      "type": "event"
    },
    {
      "inputs": [],
      "name": "MAX_PER_MINT",
      "outputs": [
        {
          "internalType": "uint256",
          "name": "",
          "type": "uint256"
        }
      ],
      "stateMutability": "view",
      "type": "function"
    },
    {
      "inputs": [],
      "name": "MAX_SUPPLY",
      "outputs": [
        {
          "internalType": "uint256",
          "name": "",
          "type": "uint256"
        }
      ],
      "stateMutability": "view",
      "type": "function"
    },
    {
      "inputs": [],
      "name": "PRICE",
      "outputs": [
        {
          "internalType": "uint256",
          "name": "",
          "type": "uint256"
        }
      ],
      "stateMutability": "view",
      "type": "function"
    },
    {
      "inputs": [
        {
          "internalType": "address",
          "name": "to",
          "type": "address"
        },
        {
          "internalType": "uint256",
          "name": "tokenId",
          "type": "uint256"
        }
      ],
      "name": "approve",
      "outputs": [],
      "stateMutability": "nonpayable",
      "type": "function"
    },
    {
      "inputs": [
        {
          "internalType": "address",
          "name": "owner",
          "type": "address"
        }
      ],
      "name": "balanceOf",
      "outputs": [
        {
          "internalType": "uint256",
          "name": "",
          "type": "uint256"
        }
      ],
      "stateMutability": "view",
      "type": "function"
    },
    {
      "inputs": [],
      "name": "baseTokenURI",
      "outputs": [
        {
          "internalType": "string",
          "name": "",
          "type": "string"
        }
      ],
      "stateMutability": "view",
      "type": "function"
    },
    {
      "inputs": [
        {
          "internalType": "uint256",
          "name": "tokenId",
          "type": "uint256"
        }
      ],
      "name": "getApproved",
      "outputs": [
        {
          "internalType": "address",
          "name": "",
          "type": "address"
        }
      ],
      "stateMutability": "view",
      "type": "function"
    },
    {
      "inputs": [
        {
          "internalType": "address",
          "name": "owner",
          "type": "address"
        },
        {
          "internalType": "address",
          "name": "operator",
          "type": "address"
        }
      ],
      "name": "isApprovedForAll",
      "outputs": [
        {
          "internalType": "bool",
          "name": "",
          "type": "bool"
        }
      ],
      "stateMutability": "view",
      "type": "function"
    },
    {
      "inputs": [
        {
          "internalType": "uint256",
          "name": "_count",
          "type": "uint256"
        }
      ],
      "name": "mintNFTs",
      "outputs": [],
      "stateMutability": "payable",
      "type": "function"
    },
    {
      "inputs": [],
      "name": "name",
      "outputs": [
        {
          "internalType": "string",
          "name": "",
          "type": "string"
        }
      ],
      "stateMutability": "view",
      "type": "function"
    },
    {
      "inputs": [],
      "name": "owner",
      "outputs": [
        {
          "internalType": "address",
          "name": "",
          "type": "address"
        }
      ],
      "stateMutability": "view",
      "type": "function"
    },
    {
      "inputs": [
        {
          "internalType": "uint256",
          "name": "tokenId",
          "type": "uint256"
        }
      ],
      "name": "ownerOf",
      "outputs": [
        {
          "internalType": "address",
          "name": "",
          "type": "address"
        }
      ],
      "stateMutability": "view",
      "type": "function"
    },
    {
      "inputs": [],
      "name": "renounceOwnership",
      "outputs": [],
      "stateMutability": "nonpayable",
      "type": "function"
    },
    {
      "inputs": [],
      "name": "reserveNFTs",
      "outputs": [],
      "stateMutability": "nonpayable",
      "type": "function"
    },
    {
      "inputs": [
        {
          "internalType": "address",
          "name": "from",
          "type": "address"
        },
        {
          "internalType": "address",
          "name": "to",
          "type": "address"
        },
        {
          "internalType": "uint256",
          "name": "tokenId",
          "type": "uint256"
        }
      ],
      "name": "safeTransferFrom",
      "outputs": [],
      "stateMutability": "nonpayable",
      "type": "function"
    },
    {
      "inputs": [
        {
          "internalType": "address",
          "name": "from",
          "type": "address"
        },
        {
          "internalType": "address",
          "name": "to",
          "type": "address"
        },
        {
          "internalType": "uint256",
          "name": "tokenId",
          "type": "uint256"
        },
        {
          "internalType": "bytes",
          "name": "_data",
          "type": "bytes"
        }
      ],
      "name": "safeTransferFrom",
      "outputs": [],
      "stateMutability": "nonpayable",
      "type": "function"
    },
    {
      "inputs": [
        {
          "internalType": "address",
          "name": "operator",
          "type": "address"
        },
        {
          "internalType": "bool",
          "name": "approved",
          "type": "bool"
        }
      ],
      "name": "setApprovalForAll",
      "outputs": [],
      "stateMutability": "nonpayable",
      "type": "function"
    },
    {
      "inputs": [
        {
          "internalType": "string",
          "name": "_baseTokenURI",
          "type": "string"
        }
      ],
      "name": "setBaseURI",
      "outputs": [],
      "stateMutability": "nonpayable",
      "type": "function"
    },
    {
      "inputs": [
        {
          "internalType": "bytes4",
          "name": "interfaceId",
          "type": "bytes4"
        }
      ],
      "name": "supportsInterface",
      "outputs": [
        {
          "internalType": "bool",
          "name": "",
          "type": "bool"
        }
      ],
      "stateMutability": "view",
      "type": "function"
    },
    {
      "inputs": [],
      "name": "symbol",
      "outputs": [
        {
          "internalType": "string",
          "name": "",
          "type": "string"
        }
      ],
      "stateMutability": "view",
      "type": "function"
    },
    {
      "inputs": [
        {
          "internalType": "uint256",
          "name": "index",
          "type": "uint256"
        }
      ],
      "name": "tokenByIndex",
      "outputs": [
        {
          "internalType": "uint256",
          "name": "",
          "type": "uint256"
        }
      ],
      "stateMutability": "view",
      "type": "function"
    },
    {
      "inputs": [
        {
          "internalType": "address",
          "name": "owner",
          "type": "address"
        },
        {
          "internalType": "uint256",
          "name": "index",
          "type": "uint256"
        }
      ],
      "name": "tokenOfOwnerByIndex",
      "outputs": [
        {
          "internalType": "uint256",
          "name": "",
          "type": "uint256"
        }
      ],
      "stateMutability": "view",
      "type": "function"
    },
    {
      "inputs": [
        {
          "internalType": "uint256",
          "name": "tokenId",
          "type": "uint256"
        }
      ],
      "name": "tokenURI",
      "outputs": [
        {
          "internalType": "string",
          "name": "",
          "type": "string"
        }
      ],
      "stateMutability": "view",
      "type": "function"
    },
    {
      "inputs": [
        {
          "internalType": "address",
          "name": "_owner",
          "type": "address"
        }
      ],
      "name": "tokensOfOwner",
      "outputs": [
        {
          "internalType": "uint256[]",
          "name": "",
          "type": "uint256[]"
        }
      ],
      "stateMutability": "view",
      "type": "function"
    },
    {
      "inputs": [],
      "name": "totalSupply",
      "outputs": [
        {
          "internalType": "uint256",
          "name": "",
          "type": "uint256"
        }
      ],
      "stateMutability": "view",
      "type": "function"
    },
    {
      "inputs": [
        {
          "internalType": "address",
          "name": "from",
          "type": "address"
        },
        {
          "internalType": "address",
          "name": "to",
          "type": "address"
        },
        {
          "internalType": "uint256",
          "name": "tokenId",
          "type": "uint256"
        }
      ],
      "name": "transferFrom",
      "outputs": [],
      "stateMutability": "nonpayable",
      "type": "function"
    },
    {
      "inputs": [
        {
          "internalType": "address",
          "name": "newOwner",
          "type": "address"
        }
      ],
      "name": "transferOwnership",
      "outputs": [],
      "stateMutability": "nonpayable",
      "type": "function"
    },
    {
      "inputs": [],
      "name": "withdraw",
      "outputs": [],
      "stateMutability": "payable",
      "type": "function"
    }
  ],
  "bytecode": "0x60806040523480156200001157600080fd5b506040516200488d3803806200488d8339818101604052810190620000379190620003d4565b6040518060400160405280600f81526020017f4e465420436f6c6c65637469626c6500000000000000000000000000000000008152506040518060400160405280600481526020017f4e465443000000000000000000000000000000000000000000000000000000008152508160009080519060200190620000bb929190620002b2565b508060019080519060200190620000d4929190620002b2565b505050620000f7620000eb6200010f60201b60201c565b6200011760201b60201c565b6200010881620001dd60201b60201c565b506200060c565b600033905090565b6000600a60009054906101000a900473ffffffffffffffffffffffffffffffffffffffff16905081600a60006101000a81548173ffffffffffffffffffffffffffffffffffffffff021916908373ffffffffffffffffffffffffffffffffffffffff1602179055508173ffffffffffffffffffffffffffffffffffffffff168173ffffffffffffffffffffffffffffffffffffffff167f8be0079c531659141344cd1fd0a4f28419497f9722a3daafe3b4186f6b6457e060405160405180910390a35050565b620001ed6200010f60201b60201c565b73ffffffffffffffffffffffffffffffffffffffff16620002136200028860201b60201c565b73ffffffffffffffffffffffffffffffffffffffff16146200026c576040517f08c379a0000000000000000000000000000000000000000000000000000000008152600401620002639062000440565b60405180910390fd5b80600c908051906020019062000284929190620002b2565b5050565b6000600a60009054906101000a900473ffffffffffffffffffffffffffffffffffffffff16905090565b828054620002c09062000508565b90600052602060002090601f016020900481019282620002e4576000855562000330565b82601f10620002ff57805160ff191683800117855562000330565b8280016001018555821562000330579182015b828111156200032f57825182559160200191906001019062000312565b5b5090506200033f919062000343565b5090565b5b808211156200035e57600081600090555060010162000344565b5090565b60006200037962000373846200048b565b62000462565b9050828152602081018484840111156200039257600080fd5b6200039f848285620004d2565b509392505050565b600082601f830112620003b957600080fd5b8151620003cb84826020860162000362565b91505092915050565b600060208284031215620003e757600080fd5b600082015167ffffffffffffffff8111156200040257600080fd5b6200041084828501620003a7565b91505092915050565b600062000428602083620004c1565b91506200043582620005e3565b602082019050919050565b600060208201905081810360008301526200045b8162000419565b9050919050565b60006200046e62000481565b90506200047c82826200053e565b919050565b6000604051905090565b600067ffffffffffffffff821115620004a957620004a8620005a3565b5b620004b482620005d2565b9050602081019050919050565b600082825260208201905092915050565b60005b83811015620004f2578082015181840152602081019050620004d5565b8381111562000502576000848401525b50505050565b600060028204905060018216806200052157607f821691505b6020821081141562000538576200053762000574565b5b50919050565b6200054982620005d2565b810181811067ffffffffffffffff821117156200056b576200056a620005a3565b5b80604052505050565b7f4e487b7100000000000000000000000000000000000000000000000000000000600052602260045260246000fd5b7f4e487b7100000000000000000000000000000000000000000000000000000000600052604160045260246000fd5b6000601f19601f8301169050919050565b7f4f776e61626c653a2063616c6c6572206973206e6f7420746865206f776e6572600082015250565b614271806200061c6000396000f3fe6080604052600436106101b75760003560e01c806355f804b3116100ec57806395d89b411161008a578063c87b56dd11610064578063c87b56dd146105de578063d547cfb71461061b578063e985e9c514610646578063f2fde38b14610683576101b7565b806395d89b4114610561578063a22cb4651461058c578063b88d4fde146105b5576101b7565b8063715018a6116100c6578063715018a6146104b75780638462151c146104ce5780638d859f3e1461050b5780638da5cb5b14610536576101b7565b806355f804b3146104145780636352211e1461043d57806370a082311461047a576101b7565b806323b872dd116101595780633b4b1381116101335780633b4b1381146103885780633ccfd60b146103a457806342842e0e146103ae5780634f6ccce7146103d7576101b7565b806323b872dd146102f75780632f745c591461032057806332cb6b0c1461035d576101b7565b8063095ea7b311610195578063095ea7b31461026157806309d42b301461028a578063144100c7146102b557806318160ddd146102cc576101b7565b806301ffc9a7146101bc57806306fdde03146101f9578063081812fc14610224575b600080fd5b3480156101c857600080fd5b506101e360048036038101906101de9190612d8b565b6106ac565b6040516101f091906133c9565b60405180910390f35b34801561020557600080fd5b5061020e610726565b60405161021b91906133e4565b60405180910390f35b34801561023057600080fd5b5061024b60048036038101906102469190612e1e565b6107b8565b6040516102589190613340565b60405180910390f35b34801561026d57600080fd5b5061028860048036038101906102839190612d4f565b61083d565b005b34801561029657600080fd5b5061029f610955565b6040516102ac9190613706565b60405180910390f35b3480156102c157600080fd5b506102ca61095a565b005b3480156102d857600080fd5b506102e1610a65565b6040516102ee9190613706565b60405180910390f35b34801561030357600080fd5b5061031e60048036038101906103199190612c49565b610a72565b005b34801561032c57600080fd5b5061034760048036038101906103429190612d4f565b610ad2565b6040516103549190613706565b60405180910390f35b34801561036957600080fd5b50610372610b77565b60405161037f9190613706565b60405180910390f35b6103a2600480360381019061039d9190612e1e565b610b7c565b005b6103ac610cb7565b005b3480156103ba57600080fd5b506103d560048036038101906103d09190612c49565b610e2b565b005b3480156103e357600080fd5b506103fe60048036038101906103f99190612e1e565b610e4b565b60405161040b9190613706565b60405180910390f35b34801561042057600080fd5b5061043b60048036038101906104369190612ddd565b610ee2565b005b34801561044957600080fd5b50610464600480360381019061045f9190612e1e565b610f78565b6040516104719190613340565b60405180910390f35b34801561048657600080fd5b506104a1600480360381019061049c9190612be4565b61102a565b6040516104ae9190613706565b60405180910390f35b3480156104c357600080fd5b506104cc6110e2565b005b3480156104da57600080fd5b506104f560048036038101906104f09190612be4565b61116a565b60405161050291906133a7565b60405180910390f35b34801561051757600080fd5b50610520611264565b60405161052d9190613706565b60405180910390f35b34801561054257600080fd5b5061054b61126f565b6040516105589190613340565b60405180910390f35b34801561056d57600080fd5b50610576611299565b60405161058391906133e4565b60405180910390f35b34801561059857600080fd5b506105b360048036038101906105ae9190612d13565b61132b565b005b3480156105c157600080fd5b506105dc60048036038101906105d79190612c98565b611341565b005b3480156105ea57600080fd5b5061060560048036038101906106009190612e1e565b6113a3565b60405161061291906133e4565b60405180910390f35b34801561062757600080fd5b5061063061144a565b60405161063d91906133e4565b60405180910390f35b34801561065257600080fd5b5061066d60048036038101906106689190612c0d565b6114d8565b60405161067a91906133c9565b60405180910390f35b34801561068f57600080fd5b506106aa60048036038101906106a59190612be4565b61156c565b005b60007f780e9d63000000000000000000000000000000000000000000000000000000007bffffffffffffffffffffffffffffffffffffffffffffffffffffffff1916827bffffffffffffffffffffffffffffffffffffffffffffffffffffffff1916148061071f575061071e82611664565b5b9050919050565b606060008054610735906139fa565b80601f0160208091040260200160405190810160405280929190818152602001828054610761906139fa565b80156107ae5780601f10610783576101008083540402835291602001916107ae565b820191906000526020600020905b81548152906001019060200180831161079157829003601f168201915b5050505050905090565b60006107c382611746565b610802576040517f08c379a00000000000000000000000000000000000000000000000000000000081526004016107f990613626565b60405180910390fd5b6004600083815260200190815260200160002060009054906101000a900473ffffffffffffffffffffffffffffffffffffffff169050919050565b600061084882610f78565b90508073ffffffffffffffffffffffffffffffffffffffff168373ffffffffffffffffffffffffffffffffffffffff1614156108b9576040517f08c379a00000000000000000000000000000000000000000000000000000000081526004016108b090613686565b60405180910390fd5b8073ffffffffffffffffffffffffffffffffffffffff166108d86117b2565b73ffffffffffffffffffffffffffffffffffffffff1614806109075750610906816109016117b2565b6114d8565b5b610946576040517f08c379a000000000000000000000000000000000000000000000000000000000815260040161093d90613586565b60405180910390fd5b61095083836117ba565b505050565b600581565b6109626117b2565b73ffffffffffffffffffffffffffffffffffffffff1661098061126f565b73ffffffffffffffffffffffffffffffffffffffff16146109d6576040517f08c379a00000000000000000000000000000000000000000000000000000000081526004016109cd90613646565b60405180910390fd5b60006109e2600b611873565b905060646109fa600a8361188190919063ffffffff16565b10610a3a576040517f08c379a0000000000000000000000000000000000000000000000000000000008152600401610a3190613406565b60405180910390fd5b60005b600a811015610a6157610a4e611897565b8080610a5990613a5d565b915050610a3d565b5050565b6000600880549050905090565b610a83610a7d6117b2565b826118bc565b610ac2576040517f08c379a0000000000000000000000000000000000000000000000000000000008152600401610ab9906136c6565b60405180910390fd5b610acd83838361199a565b505050565b6000610add8361102a565b8210610b1e576040517f08c379a0000000000000000000000000000000000000000000000000000000008152600401610b1590613426565b60405180910390fd5b600660008473ffffffffffffffffffffffffffffffffffffffff1673ffffffffffffffffffffffffffffffffffffffff168152602001908152602001600020600083815260200190815260200160002054905092915050565b606481565b6000610b88600b611873565b90506064610b9f838361188190919063ffffffff16565b1115610be0576040517f08c379a0000000000000000000000000000000000000000000000000000000008152600401610bd790613526565b60405180910390fd5b600082118015610bf1575060058211155b610c30576040517f08c379a0000000000000000000000000000000000000000000000000000000008152600401610c2790613546565b60405180910390fd5b610c4a82662386f26fc10000611c0190919063ffffffff16565b341015610c8c576040517f08c379a0000000000000000000000000000000000000000000000000000000008152600401610c8390613506565b60405180910390fd5b60005b82811015610cb257610c9f611897565b8080610caa90613a5d565b915050610c8f565b505050565b610cbf6117b2565b73ffffffffffffffffffffffffffffffffffffffff16610cdd61126f565b73ffffffffffffffffffffffffffffffffffffffff1614610d33576040517f08c379a0000000000000000000000000000000000000000000000000000000008152600401610d2a90613646565b60405180910390fd5b600047905060008111610d7b576040517f08c379a0000000000000000000000000000000000000000000000000000000008152600401610d7290613606565b60405180910390fd5b60003373ffffffffffffffffffffffffffffffffffffffff1682604051610da19061332b565b60006040518083038185875af1925050503d8060008114610dde576040519150601f19603f3d011682016040523d82523d6000602084013e610de3565b606091505b5050905080610e27576040517f08c379a0000000000000000000000000000000000000000000000000000000008152600401610e1e906136a6565b60405180910390fd5b5050565b610e4683838360405180602001604052806000815250611341565b505050565b6000610e55610a65565b8210610e96576040517f08c379a0000000000000000000000000000000000000000000000000000000008152600401610e8d906136e6565b60405180910390fd5b60088281548110610ed0577f4e487b7100000000000000000000000000000000000000000000000000000000600052603260045260246000fd5b90600052602060002001549050919050565b610eea6117b2565b73ffffffffffffffffffffffffffffffffffffffff16610f0861126f565b73ffffffffffffffffffffffffffffffffffffffff1614610f5e576040517f08c379a0000000000000000000000000000000000000000000000000000000008152600401610f5590613646565b60405180910390fd5b80600c9080519060200190610f74929190612a08565b5050565b6000806002600084815260200190815260200160002060009054906101000a900473ffffffffffffffffffffffffffffffffffffffff169050600073ffffffffffffffffffffffffffffffffffffffff168173ffffffffffffffffffffffffffffffffffffffff161415611021576040517f08c379a0000000000000000000000000000000000000000000000000000000008152600401611018906135c6565b60405180910390fd5b80915050919050565b60008073ffffffffffffffffffffffffffffffffffffffff168273ffffffffffffffffffffffffffffffffffffffff16141561109b576040517f08c379a0000000000000000000000000000000000000000000000000000000008152600401611092906135a6565b60405180910390fd5b600360008373ffffffffffffffffffffffffffffffffffffffff1673ffffffffffffffffffffffffffffffffffffffff168152602001908152602001600020549050919050565b6110ea6117b2565b73ffffffffffffffffffffffffffffffffffffffff1661110861126f565b73ffffffffffffffffffffffffffffffffffffffff161461115e576040517f08c379a000000000000000000000000000000000000000000000000000000000815260040161115590613646565b60405180910390fd5b6111686000611c17565b565b606060006111778361102a565b905060008167ffffffffffffffff8111156111bb577f4e487b7100000000000000000000000000000000000000000000000000000000600052604160045260246000fd5b6040519080825280602002602001820160405280156111e95781602001602082028036833780820191505090505b50905060005b82811015611259576112018582610ad2565b82828151811061123a577f4e487b7100000000000000000000000000000000000000000000000000000000600052603260045260246000fd5b602002602001018181525050808061125190613a5d565b9150506111ef565b508092505050919050565b662386f26fc1000081565b6000600a60009054906101000a900473ffffffffffffffffffffffffffffffffffffffff16905090565b6060600180546112a8906139fa565b80601f01602080910402602001604051908101604052809291908181526020018280546112d4906139fa565b80156113215780601f106112f657610100808354040283529160200191611321565b820191906000526020600020905b81548152906001019060200180831161130457829003601f168201915b5050505050905090565b61133d6113366117b2565b8383611cdd565b5050565b61135261134c6117b2565b836118bc565b611391576040517f08c379a0000000000000000000000000000000000000000000000000000000008152600401611388906136c6565b60405180910390fd5b61139d84848484611e4a565b50505050565b60606113ae82611746565b6113ed576040517f08c379a00000000000000000000000000000000000000000000000000000000081526004016113e490613666565b60405180910390fd5b60006113f7611ea6565b905060008151116114175760405180602001604052806000815250611442565b8061142184611f38565b604051602001611432929190613307565b6040516020818303038152906040525b915050919050565b600c8054611457906139fa565b80601f0160208091040260200160405190810160405280929190818152602001828054611483906139fa565b80156114d05780601f106114a5576101008083540402835291602001916114d0565b820191906000526020600020905b8154815290600101906020018083116114b357829003601f168201915b505050505081565b6000600560008473ffffffffffffffffffffffffffffffffffffffff1673ffffffffffffffffffffffffffffffffffffffff16815260200190815260200160002060008373ffffffffffffffffffffffffffffffffffffffff1673ffffffffffffffffffffffffffffffffffffffff16815260200190815260200160002060009054906101000a900460ff16905092915050565b6115746117b2565b73ffffffffffffffffffffffffffffffffffffffff1661159261126f565b73ffffffffffffffffffffffffffffffffffffffff16146115e8576040517f08c379a00000000000000000000000000000000000000000000000000000000081526004016115df90613646565b60405180910390fd5b600073ffffffffffffffffffffffffffffffffffffffff168173ffffffffffffffffffffffffffffffffffffffff161415611658576040517f08c379a000000000000000000000000000000000000000000000000000000000815260040161164f90613466565b60405180910390fd5b61166181611c17565b50565b60007f80ac58cd000000000000000000000000000000000000000000000000000000007bffffffffffffffffffffffffffffffffffffffffffffffffffffffff1916827bffffffffffffffffffffffffffffffffffffffffffffffffffffffff1916148061172f57507f5b5e139f000000000000000000000000000000000000000000000000000000007bffffffffffffffffffffffffffffffffffffffffffffffffffffffff1916827bffffffffffffffffffffffffffffffffffffffffffffffffffffffff1916145b8061173f575061173e826120e5565b5b9050919050565b60008073ffffffffffffffffffffffffffffffffffffffff166002600084815260200190815260200160002060009054906101000a900473ffffffffffffffffffffffffffffffffffffffff1673ffffffffffffffffffffffffffffffffffffffff1614159050919050565b600033905090565b816004600083815260200190815260200160002060006101000a81548173ffffffffffffffffffffffffffffffffffffffff021916908373ffffffffffffffffffffffffffffffffffffffff160217905550808273ffffffffffffffffffffffffffffffffffffffff1661182d83610f78565b73ffffffffffffffffffffffffffffffffffffffff167f8c5be1e5ebec7d5bd14f71427d1e84f3dd0314c0f7b2291e5b200ac8c7c3b92560405160405180910390a45050565b600081600001549050919050565b6000818361188f919061382f565b905092915050565b60006118a3600b611873565b90506118af338261214f565b6118b9600b61216d565b50565b60006118c782611746565b611906576040517f08c379a00000000000000000000000000000000000000000000000000000000081526004016118fd90613566565b60405180910390fd5b600061191183610f78565b90508073ffffffffffffffffffffffffffffffffffffffff168473ffffffffffffffffffffffffffffffffffffffff16148061198057508373ffffffffffffffffffffffffffffffffffffffff16611968846107b8565b73ffffffffffffffffffffffffffffffffffffffff16145b80611991575061199081856114d8565b5b91505092915050565b8273ffffffffffffffffffffffffffffffffffffffff166119ba82610f78565b73ffffffffffffffffffffffffffffffffffffffff1614611a10576040517f08c379a0000000000000000000000000000000000000000000000000000000008152600401611a0790613486565b60405180910390fd5b600073ffffffffffffffffffffffffffffffffffffffff168273ffffffffffffffffffffffffffffffffffffffff161415611a80576040517f08c379a0000000000000000000000000000000000000000000000000000000008152600401611a77906134c6565b60405180910390fd5b611a8b838383612183565b611a966000826117ba565b6001600360008573ffffffffffffffffffffffffffffffffffffffff1673ffffffffffffffffffffffffffffffffffffffff1681526020019081526020016000206000828254611ae69190613910565b925050819055506001600360008473ffffffffffffffffffffffffffffffffffffffff1673ffffffffffffffffffffffffffffffffffffffff1681526020019081526020016000206000828254611b3d919061382f565b92505081905550816002600083815260200190815260200160002060006101000a81548173ffffffffffffffffffffffffffffffffffffffff021916908373ffffffffffffffffffffffffffffffffffffffff160217905550808273ffffffffffffffffffffffffffffffffffffffff168473ffffffffffffffffffffffffffffffffffffffff167fddf252ad1be2c89b69c2b068fc378daa952ba7f163c4a11628f55a4df523b3ef60405160405180910390a4611bfc838383612297565b505050565b60008183611c0f91906138b6565b905092915050565b6000600a60009054906101000a900473ffffffffffffffffffffffffffffffffffffffff16905081600a60006101000a81548173ffffffffffffffffffffffffffffffffffffffff021916908373ffffffffffffffffffffffffffffffffffffffff1602179055508173ffffffffffffffffffffffffffffffffffffffff168173ffffffffffffffffffffffffffffffffffffffff167f8be0079c531659141344cd1fd0a4f28419497f9722a3daafe3b4186f6b6457e060405160405180910390a35050565b8173ffffffffffffffffffffffffffffffffffffffff168373ffffffffffffffffffffffffffffffffffffffff161415611d4c576040517f08c379a0000000000000000000000000000000000000000000000000000000008152600401611d43906134e6565b60405180910390fd5b80600560008573ffffffffffffffffffffffffffffffffffffffff1673ffffffffffffffffffffffffffffffffffffffff16815260200190815260200160002060008473ffffffffffffffffffffffffffffffffffffffff1673ffffffffffffffffffffffffffffffffffffffff16815260200190815260200160002060006101000a81548160ff0219169083151502179055508173ffffffffffffffffffffffffffffffffffffffff168373ffffffffffffffffffffffffffffffffffffffff167f17307eab39ab6107e8899845ad3d59bd9653f200f220920489ca2b5937696c3183604051611e3d91906133c9565b60405180910390a3505050565b611e5584848461199a565b611e618484848461229c565b611ea0576040517f08c379a0000000000000000000000000000000000000000000000000000000008152600401611e9790613446565b60405180910390fd5b50505050565b6060600c8054611eb5906139fa565b80601f0160208091040260200160405190810160405280929190818152602001828054611ee1906139fa565b8015611f2e5780601f10611f0357610100808354040283529160200191611f2e565b820191906000526020600020905b815481529060010190602001808311611f1157829003601f168201915b5050505050905090565b60606000821415611f80576040518060400160405280600181526020017f300000000000000000000000000000000000000000000000000000000000000081525090506120e0565b600082905060005b60008214611fb2578080611f9b90613a5d565b915050600a82611fab9190613885565b9150611f88565b60008167ffffffffffffffff811115611ff4577f4e487b7100000000000000000000000000000000000000000000000000000000600052604160045260246000fd5b6040519080825280601f01601f1916602001820160405280156120265781602001600182028036833780820191505090505b5090505b600085146120d95760018261203f9190613910565b9150600a8561204e9190613aa6565b603061205a919061382f565b60f81b818381518110612096577f4e487b7100000000000000000000000000000000000000000000000000000000600052603260045260246000fd5b60200101907effffffffffffffffffffffffffffffffffffffffffffffffffffffffffffff1916908160001a905350600a856120d29190613885565b945061202a565b8093505050505b919050565b60007f01ffc9a7000000000000000000000000000000000000000000000000000000007bffffffffffffffffffffffffffffffffffffffffffffffffffffffff1916827bffffffffffffffffffffffffffffffffffffffffffffffffffffffff1916149050919050565b612169828260405180602001604052806000815250612433565b5050565b6001816000016000828254019250508190555050565b61218e83838361248e565b600073ffffffffffffffffffffffffffffffffffffffff168373ffffffffffffffffffffffffffffffffffffffff1614156121d1576121cc81612493565b612210565b8173ffffffffffffffffffffffffffffffffffffffff168373ffffffffffffffffffffffffffffffffffffffff161461220f5761220e83826124dc565b5b5b600073ffffffffffffffffffffffffffffffffffffffff168273ffffffffffffffffffffffffffffffffffffffff1614156122535761224e81612649565b612292565b8273ffffffffffffffffffffffffffffffffffffffff168273ffffffffffffffffffffffffffffffffffffffff161461229157612290828261278c565b5b5b505050565b505050565b60006122bd8473ffffffffffffffffffffffffffffffffffffffff1661280b565b15612426578373ffffffffffffffffffffffffffffffffffffffff1663150b7a026122e66117b2565b8786866040518563ffffffff1660e01b8152600401612308949392919061335b565b602060405180830381600087803b15801561232257600080fd5b505af192505050801561235357506040513d601f19601f820116820180604052508101906123509190612db4565b60015b6123d6573d8060008114612383576040519150601f19603f3d011682016040523d82523d6000602084013e612388565b606091505b506000815114156123ce576040517f08c379a00000000000000000000000000000000000000000000000000000000081526004016123c590613446565b60405180910390fd5b805181602001fd5b63150b7a0260e01b7bffffffffffffffffffffffffffffffffffffffffffffffffffffffff1916817bffffffffffffffffffffffffffffffffffffffffffffffffffffffff19161491505061242b565b600190505b949350505050565b61243d838361282e565b61244a600084848461229c565b612489576040517f08c379a000000000000000000000000000000000000000000000000000000000815260040161248090613446565b60405180910390fd5b505050565b505050565b6008805490506009600083815260200190815260200160002081905550600881908060018154018082558091505060019003906000526020600020016000909190919091505550565b600060016124e98461102a565b6124f39190613910565b90506000600760008481526020019081526020016000205490508181146125d8576000600660008673ffffffffffffffffffffffffffffffffffffffff1673ffffffffffffffffffffffffffffffffffffffff168152602001908152602001600020600084815260200190815260200160002054905080600660008773ffffffffffffffffffffffffffffffffffffffff1673ffffffffffffffffffffffffffffffffffffffff168152602001908152602001600020600084815260200190815260200160002081905550816007600083815260200190815260200160002081905550505b6007600084815260200190815260200160002060009055600660008573ffffffffffffffffffffffffffffffffffffffff1673ffffffffffffffffffffffffffffffffffffffff16815260200190815260200160002060008381526020019081526020016000206000905550505050565b6000600160088054905061265d9190613910565b90506000600960008481526020019081526020016000205490506000600883815481106126b3577f4e487b7100000000000000000000000000000000000000000000000000000000600052603260045260246000fd5b9060005260206000200154905080600883815481106126fb577f4e487b7100000000000000000000000000000000000000000000000000000000600052603260045260246000fd5b906000526020600020018190555081600960008381526020019081526020016000208190555060096000858152602001908152602001600020600090556008805480612770577f4e487b7100000000000000000000000000000000000000000000000000000000600052603160045260246000fd5b6001900381819060005260206000200160009055905550505050565b60006127978361102a565b905081600660008573ffffffffffffffffffffffffffffffffffffffff1673ffffffffffffffffffffffffffffffffffffffff168152602001908152602001600020600083815260200190815260200160002081905550806007600084815260200190815260200160002081905550505050565b6000808273ffffffffffffffffffffffffffffffffffffffff163b119050919050565b600073ffffffffffffffffffffffffffffffffffffffff168273ffffffffffffffffffffffffffffffffffffffff16141561289e576040517f08c379a0000000000000000000000000000000000000000000000000000000008152600401612895906135e6565b60405180910390fd5b6128a781611746565b156128e7576040517f08c379a00000000000000000000000000000000000000000000000000000000081526004016128de906134a6565b60405180910390fd5b6128f360008383612183565b6001600360008473ffffffffffffffffffffffffffffffffffffffff1673ffffffffffffffffffffffffffffffffffffffff1681526020019081526020016000206000828254612943919061382f565b92505081905550816002600083815260200190815260200160002060006101000a81548173ffffffffffffffffffffffffffffffffffffffff021916908373ffffffffffffffffffffffffffffffffffffffff160217905550808273ffffffffffffffffffffffffffffffffffffffff16600073ffffffffffffffffffffffffffffffffffffffff167fddf252ad1be2c89b69c2b068fc378daa952ba7f163c4a11628f55a4df523b3ef60405160405180910390a4612a0460008383612297565b5050565b828054612a14906139fa565b90600052602060002090601f016020900481019282612a365760008555612a7d565b82601f10612a4f57805160ff1916838001178555612a7d565b82800160010185558215612a7d579182015b82811115612a7c578251825591602001919060010190612a61565b5b509050612a8a9190612a8e565b5090565b5b80821115612aa7576000816000905550600101612a8f565b5090565b6000612abe612ab984613746565b613721565b905082815260208101848484011115612ad657600080fd5b612ae18482856139b8565b509392505050565b6000612afc612af784613777565b613721565b905082815260208101848484011115612b1457600080fd5b612b1f8482856139b8565b509392505050565b600081359050612b36816141df565b92915050565b600081359050612b4b816141f6565b92915050565b600081359050612b608161420d565b92915050565b600081519050612b758161420d565b92915050565b600082601f830112612b8c57600080fd5b8135612b9c848260208601612aab565b91505092915050565b600082601f830112612bb657600080fd5b8135612bc6848260208601612ae9565b91505092915050565b600081359050612bde81614224565b92915050565b600060208284031215612bf657600080fd5b6000612c0484828501612b27565b91505092915050565b60008060408385031215612c2057600080fd5b6000612c2e85828601612b27565b9250506020612c3f85828601612b27565b9150509250929050565b600080600060608486031215612c5e57600080fd5b6000612c6c86828701612b27565b9350506020612c7d86828701612b27565b9250506040612c8e86828701612bcf565b9150509250925092565b60008060008060808587031215612cae57600080fd5b6000612cbc87828801612b27565b9450506020612ccd87828801612b27565b9350506040612cde87828801612bcf565b925050606085013567ffffffffffffffff811115612cfb57600080fd5b612d0787828801612b7b565b91505092959194509250565b60008060408385031215612d2657600080fd5b6000612d3485828601612b27565b9250506020612d4585828601612b3c565b9150509250929050565b60008060408385031215612d6257600080fd5b6000612d7085828601612b27565b9250506020612d8185828601612bcf565b9150509250929050565b600060208284031215612d9d57600080fd5b6000612dab84828501612b51565b91505092915050565b600060208284031215612dc657600080fd5b6000612dd484828501612b66565b91505092915050565b600060208284031215612def57600080fd5b600082013567ffffffffffffffff811115612e0957600080fd5b612e1584828501612ba5565b91505092915050565b600060208284031215612e3057600080fd5b6000612e3e84828501612bcf565b91505092915050565b6000612e5383836132e9565b60208301905092915050565b612e6881613944565b82525050565b6000612e79826137b8565b612e8381856137e6565b9350612e8e836137a8565b8060005b83811015612ebf578151612ea68882612e47565b9750612eb1836137d9565b925050600181019050612e92565b5085935050505092915050565b612ed581613956565b82525050565b6000612ee6826137c3565b612ef081856137f7565b9350612f008185602086016139c7565b612f0981613b93565b840191505092915050565b6000612f1f826137ce565b612f298185613813565b9350612f398185602086016139c7565b612f4281613b93565b840191505092915050565b6000612f58826137ce565b612f628185613824565b9350612f728185602086016139c7565b80840191505092915050565b6000612f8b601f83613813565b9150612f9682613ba4565b602082019050919050565b6000612fae602b83613813565b9150612fb982613bcd565b604082019050919050565b6000612fd1603283613813565b9150612fdc82613c1c565b604082019050919050565b6000612ff4602683613813565b9150612fff82613c6b565b604082019050919050565b6000613017602583613813565b915061302282613cba565b604082019050919050565b600061303a601c83613813565b915061304582613d09565b602082019050919050565b600061305d602483613813565b915061306882613d32565b604082019050919050565b6000613080601983613813565b915061308b82613d81565b602082019050919050565b60006130a3602283613813565b91506130ae82613daa565b604082019050919050565b60006130c6601583613813565b91506130d182613df9565b602082019050919050565b60006130e9602583613813565b91506130f482613e22565b604082019050919050565b600061310c602c83613813565b915061311782613e71565b604082019050919050565b600061312f603883613813565b915061313a82613ec0565b604082019050919050565b6000613152602a83613813565b915061315d82613f0f565b604082019050919050565b6000613175602983613813565b915061318082613f5e565b604082019050919050565b6000613198602083613813565b91506131a382613fad565b602082019050919050565b60006131bb601983613813565b91506131c682613fd6565b602082019050919050565b60006131de602c83613813565b91506131e982613fff565b604082019050919050565b6000613201602083613813565b915061320c8261404e565b602082019050919050565b6000613224602f83613813565b915061322f82614077565b604082019050919050565b6000613247602183613813565b9150613252826140c6565b604082019050919050565b600061326a600083613808565b915061327582614115565b600082019050919050565b600061328d601083613813565b915061329882614118565b602082019050919050565b60006132b0603183613813565b91506132bb82614141565b604082019050919050565b60006132d3602c83613813565b91506132de82614190565b604082019050919050565b6132f2816139ae565b82525050565b613301816139ae565b82525050565b60006133138285612f4d565b915061331f8284612f4d565b91508190509392505050565b60006133368261325d565b9150819050919050565b60006020820190506133556000830184612e5f565b92915050565b60006080820190506133706000830187612e5f565b61337d6020830186612e5f565b61338a60408301856132f8565b818103606083015261339c8184612edb565b905095945050505050565b600060208201905081810360008301526133c18184612e6e565b905092915050565b60006020820190506133de6000830184612ecc565b92915050565b600060208201905081810360008301526133fe8184612f14565b905092915050565b6000602082019050818103600083015261341f81612f7e565b9050919050565b6000602082019050818103600083015261343f81612fa1565b9050919050565b6000602082019050818103600083015261345f81612fc4565b9050919050565b6000602082019050818103600083015261347f81612fe7565b9050919050565b6000602082019050818103600083015261349f8161300a565b9050919050565b600060208201905081810360008301526134bf8161302d565b9050919050565b600060208201905081810360008301526134df81613050565b9050919050565b600060208201905081810360008301526134ff81613073565b9050919050565b6000602082019050818103600083015261351f81613096565b9050919050565b6000602082019050818103600083015261353f816130b9565b9050919050565b6000602082019050818103600083015261355f816130dc565b9050919050565b6000602082019050818103600083015261357f816130ff565b9050919050565b6000602082019050818103600083015261359f81613122565b9050919050565b600060208201905081810360008301526135bf81613145565b9050919050565b600060208201905081810360008301526135df81613168565b9050919050565b600060208201905081810360008301526135ff8161318b565b9050919050565b6000602082019050818103600083015261361f816131ae565b9050919050565b6000602082019050818103600083015261363f816131d1565b9050919050565b6000602082019050818103600083015261365f816131f4565b9050919050565b6000602082019050818103600083015261367f81613217565b9050919050565b6000602082019050818103600083015261369f8161323a565b9050919050565b600060208201905081810360008301526136bf81613280565b9050919050565b600060208201905081810360008301526136df816132a3565b9050919050565b600060208201905081810360008301526136ff816132c6565b9050919050565b600060208201905061371b60008301846132f8565b92915050565b600061372b61373c565b90506137378282613a2c565b919050565b6000604051905090565b600067ffffffffffffffff82111561376157613760613b64565b5b61376a82613b93565b9050602081019050919050565b600067ffffffffffffffff82111561379257613791613b64565b5b61379b82613b93565b9050602081019050919050565b6000819050602082019050919050565b600081519050919050565b600081519050919050565b600081519050919050565b6000602082019050919050565b600082825260208201905092915050565b600082825260208201905092915050565b600081905092915050565b600082825260208201905092915050565b600081905092915050565b600061383a826139ae565b9150613845836139ae565b9250827fffffffffffffffffffffffffffffffffffffffffffffffffffffffffffffffff0382111561387a57613879613ad7565b5b828201905092915050565b6000613890826139ae565b915061389b836139ae565b9250826138ab576138aa613b06565b5b828204905092915050565b60006138c1826139ae565b91506138cc836139ae565b9250817fffffffffffffffffffffffffffffffffffffffffffffffffffffffffffffffff048311821515161561390557613904613ad7565b5b828202905092915050565b600061391b826139ae565b9150613926836139ae565b92508282101561393957613938613ad7565b5b828203905092915050565b600061394f8261398e565b9050919050565b60008115159050919050565b60007fffffffff0000000000000000000000000000000000000000000000000000000082169050919050565b600073ffffffffffffffffffffffffffffffffffffffff82169050919050565b6000819050919050565b82818337600083830152505050565b60005b838110156139e55780820151818401526020810190506139ca565b838111156139f4576000848401525b50505050565b60006002820490506001821680613a1257607f821691505b60208210811415613a2657613a25613b35565b5b50919050565b613a3582613b93565b810181811067ffffffffffffffff82111715613a5457613a53613b64565b5b80604052505050565b6000613a68826139ae565b91507fffffffffffffffffffffffffffffffffffffffffffffffffffffffffffffffff821415613a9b57613a9a613ad7565b5b600182019050919050565b6000613ab1826139ae565b9150613abc836139ae565b925082613acc57613acb613b06565b5b828206905092915050565b7f4e487b7100000000000000000000000000000000000000000000000000000000600052601160045260246000fd5b7f4e487b7100000000000000000000000000000000000000000000000000000000600052601260045260246000fd5b7f4e487b7100000000000000000000000000000000000000000000000000000000600052602260045260246000fd5b7f4e487b7100000000000000000000000000000000000000000000000000000000600052604160045260246000fd5b6000601f19601f8301169050919050565b7f4e6f7420656e6f756768204e465473206c65667420746f207265736572766500600082015250565b7f455243373231456e756d657261626c653a206f776e657220696e646578206f7560008201527f74206f6620626f756e6473000000000000000000000000000000000000000000602082015250565b7f4552433732313a207472616e7366657220746f206e6f6e20455243373231526560008201527f63656976657220696d706c656d656e7465720000000000000000000000000000602082015250565b7f4f776e61626c653a206e6577206f776e657220697320746865207a65726f206160008201527f6464726573730000000000000000000000000000000000000000000000000000602082015250565b7f4552433732313a207472616e736665722066726f6d20696e636f72726563742060008201527f6f776e6572000000000000000000000000000000000000000000000000000000602082015250565b7f4552433732313a20746f6b656e20616c7265616479206d696e74656400000000600082015250565b7f4552433732313a207472616e7366657220746f20746865207a65726f2061646460008201527f7265737300000000000000000000000000000000000000000000000000000000602082015250565b7f4552433732313a20617070726f766520746f2063616c6c657200000000000000600082015250565b7f4e6f7420656e6f75676820657468657220746f207075726368617365204e465460008201527f732e000000000000000000000000000000000000000000000000000000000000602082015250565b7f4e6f7420656e6f756768204e465473206c656674210000000000000000000000600082015250565b7f43616e6e6f74206d696e7420737065636966696564206e756d626572206f662060008201527f4e4654732e000000000000000000000000000000000000000000000000000000602082015250565b7f4552433732313a206f70657261746f7220717565727920666f72206e6f6e657860008201527f697374656e7420746f6b656e0000000000000000000000000000000000000000602082015250565b7f4552433732313a20617070726f76652063616c6c6572206973206e6f74206f7760008201527f6e6572206e6f7220617070726f76656420666f7220616c6c0000000000000000602082015250565b7f4552433732313a2062616c616e636520717565727920666f7220746865207a6560008201527f726f206164647265737300000000000000000000000000000000000000000000602082015250565b7f4552433732313a206f776e657220717565727920666f72206e6f6e657869737460008201527f656e7420746f6b656e0000000000000000000000000000000000000000000000602082015250565b7f4552433732313a206d696e7420746f20746865207a65726f2061646472657373600082015250565b7f4e6f206574686572206c65667420746f20776974686472617700000000000000600082015250565b7f4552433732313a20617070726f76656420717565727920666f72206e6f6e657860008201527f697374656e7420746f6b656e0000000000000000000000000000000000000000602082015250565b7f4f776e61626c653a2063616c6c6572206973206e6f7420746865206f776e6572600082015250565b7f4552433732314d657461646174613a2055524920717565727920666f72206e6f60008201527f6e6578697374656e7420746f6b656e0000000000000000000000000000000000602082015250565b7f4552433732313a20617070726f76616c20746f2063757272656e74206f776e6560008201527f7200000000000000000000000000000000000000000000000000000000000000602082015250565b50565b7f5472616e73666572206661696c65642e00000000000000000000000000000000600082015250565b7f4552433732313a207472616e736665722063616c6c6572206973206e6f74206f60008201527f776e6572206e6f7220617070726f766564000000000000000000000000000000602082015250565b7f455243373231456e756d657261626c653a20676c6f62616c20696e646578206f60008201527f7574206f6620626f756e64730000000000000000000000000000000000000000602082015250565b6141e881613944565b81146141f357600080fd5b50565b6141ff81613956565b811461420a57600080fd5b50565b61421681613962565b811461422157600080fd5b50565b61422d816139ae565b811461423857600080fd5b5056fea264697066735822122051ebe7ffa2527cf20a28b1ce3d7b0899ab0b72c2e4c9cf543bc730b89a0e712964736f6c63430008010033",
  "linkReferences": {},
  "deployedLinkReferences": {}
}